:020000040800F2
:1000000000000120C1320008950800089708000888
:10001000990800089B0800089D08000800000000DF
:100020000000000000000000000000009F08000821
:10003000A108000800000000A3080008A5080008A7
:100040001133000811330008113300081133000880
:100050001133000811330008113300081133000870
:100060001133000811330008113300081133000860
:100070001133000811330008113300081133000850
:10008000113300081133000811330008000000008C
:100090000000000000000000000000001133000814
:1000A0001133000811330008113300081133000820
:1000B0001133000811330008113300081133000810
:1000C0001133000811330008113300081133000800
:1000D000113300081133000811330008000000003C
:1000E000113300081133000811330008000000002C
:1000F00000000000000000000000000011330008B4
:10010000000000001133000811330008113300080B
:1001100000000000000000000000000000000000DF
:10012000113300081133000811330008113300089F
:100130001133000800000000000000000000000073
:10014000000000000000000000000000B5080008EA
:10015000113300081133000811330008113300086F
:1001600011330008113300080000000000000000F7
:10017000000000000000000000000000000000007F
:100180000000000011330008000000000000000023
:04019000113300081F
:10019400034613F8012B002AFBD1181A01387047C3
:1001A40053B94AB9002908BF00281CBF4FF0FF31DA
:1001B4004FF0FF3000F00CB8ADF1080C6DE904CE3F
:1001C40003F002FADDF804E0DDE9022304B070472D
:1001D400704700BF10B5054C237833B9044B13B1F5
:1001E4000448AFF300800123237010BD48010020B0
:1001F40000000000C438000808B5034B1BB10349D4
:100204000348AFF3008008BD000000004C0100204B
:10021400C4380008F0B595B0284B002101911A6C40
:1002240042F080521A641B6C03F080530193019BCB
:10023400234B02911A6842F440421A601B6803F48B
:1002440040430293029B01244FF48033CDE90843D9
:1002540002264FF48003CDE90E630F279023CDE9E6
:1002640010730425052308A8CDE9125301F006FEF6
:1002740000B1FEE705904FF4A0524FF4805321469D
:1002840003A8CDE90376CDE9062301F0D3FF0446A4
:1002940000B1FEE702F068F84FF47A73B0FBF3F0B4
:1002A40002F054FB284602F065FB224621464FF03B
:1002B400FF3002F0F9FA15B0F0BD00BF003802407B
:1002C4000070004070B5012286B004464FF400511E
:1002D400214802F0D1FA02F0CDF824F02003102BCB
:1002E40005D0202C03D0402C01D060060FD11B492F
:1002F40000230A880193022305930123D018088060
:10030400694601A8CDE90323029302F099F9A402F6
:1003140004F10064124D0426043CEB78AA7802EB45
:1003240003226B7803EB022315F8042BA11902EBCB
:1003340003220220002302F0E1F8043640F20443D1
:100344009E42EAD100224FF40051034802F094FA8D
:1003540002F0A2F806B070BD0008024004000020BC
:100364006C010020F0B589B002F038FB0024FFF7DF
:1003740051FF604B00941A6B5F4842F001021A630C
:100384001A6B02F001020092009A01941A6B42F077
:1003940002021A631A6B02F002020192019A029499
:1003A4001A6B42F004021A631B6B03F004030293FA
:1003B4004FF48052029B03A91123CDE903230125A5
:1003C400CDE9054402F08CF94B48059503A9CDE924
:1003D40003544FF4005602F083F9484803A9CDE9C9
:1003E4000365CDE9054402F07BF9642002F022FBA9
:1003F400434B444AD3F86038136044F24C2293428E
:100404000FD03D48294602F031FA50B12A463B4804
:10041400314602F031FA3C4B5A681B6883F3088872
:100424009047344B394E3A4D002103911A6C42F0F7
:1004340080521A641B6C03F080530393039B354B67
:100444001A6842F480721A602D4AC2F860181A6859
:1004540022F480721A6000F06FF83378012BDFB257
:10046400FBD12D4C2D49002307222046337003F085
:100474000DF8B8B9E37973B1012BEED12B889BB297
:100484001BB1274B1868FFF71DFF642002F0D2FA56
:1004940002F04AFAE1E7224A102111602B80214B35
:1004A4001F80DAE7204A2B88204612FA83F304F1EE
:1004B400400250F8041B43F8041B9042F9D12B88E6
:1004C40040339BB22B802B889BB2B3F5806FC4D191
:1004D400134C2068FFF7F6FE2368144A13491448A6
:1004E4000133236000232B800223D371082202F0FE
:1004F400C9FEB2E700380240000002400008024092
:100504000020004068010020004000086C05002025
:1005140064010020007000406D0500200E000020E2
:1005240000000020040000206C01002006000020D0
:10053400B0050020FEE7000008B50022084909487C
:1005440002F0B2FA0849074802F0C3FA074905481D
:1005540002F0ACFEBDE80840024802F0C1BA00BF98
:1005640030000020B0050020C00000204C00002016
:1005740010B50368B3F1A04F86B025D14FF4C05233
:1005840002230024CDE901230323CDE903430F48CB
:100594000A2301A9059302F0A3F80D4B5A6B42F00C
:1005A40080025A6300945A6C42F480425A645B6C31
:1005B40003F480430093432022462146009B02F02B
:1005C40073F9432002F0A2F906B010BD0000024006
:1005D4000038024000F2C441D0F8080502F099BA8C
:1005E400242303FB0103D0F80805D3F88C2202F07E
:1005F400BDBA242303FB0103D0F80805DA6C02F02A
:10060400E5BAD0F8080502F061BB10B5C16804462C
:100614000039D0F8080518BF012102F045FBD4F8D1
:100624000805BDE8104002F020BB000010B50446E8
:10063400D0F8080502F03BFB2268D2F8003E43F0F4
:100644000103C2F8003E236A23B1034A136943F04D
:100654000603136110BD00BF00ED00E0D0F80805EB
:1006640002F02EBBD0F8080502F03EBBD0F8080516
:1006740002F038BBD0F8080502F038BBD0F8080502
:1006840002F036BB08B5037802464BBB15484FF061
:10069400A041C0F80825C2F820020422C0E90012D3
:1006A4000222C0E90323C0E90532C0E90733C0E9E7
:1006B4000B33436200F032F920B10B484FF4A571BB
:1006C400FFF738FF8021074800F05BFE402200213D
:1006D400044800F037FE03488022012100F032FE76
:1006E400002008BDD4070020DC38000808B5D0F885
:1006F400200200F095F918B102280CBF0120022055
:1007040008BD10B51446D0F820021A46234600F05E
:10071400BAF918B102280CBF0120022010BD08B597
:10072400D0F8200200F0E3F918B102280CBF012030
:10073400022008BD08B5D0F8200200F046FA18B12E
:1007440002280CBF0120022008BD08B5D0F8200201
:1007540000F073FA18B102280CBF0120022008BD72
:1007640011F0800FD0F820324FF024021BBF01F0AB
:100774007F0102FB013302FB013393F83E0008BF03
:1007840093F87E02704708B5D0F8200200F067F9AC
:1007940018B102280CBF0120022008BD08B5D0F80A
:1007A400200200F0F2F918B102280CBF0120022047
:1007B40008BD08B5D0F8200200F0C4F918B1022829
:1007C4000CBF0120022008BD122301480B80704792
:1007D4001C000020042301480B80704718000020EF
:1007E40008B50A460248034902F026FC014808BD40
:1007F400EC380008E00C002008B50A46024803491A
:1008040002F01AFC014808BD12390008E00C00206F
:1008140008B50A460248034902F00EFC014808BD27
:1008240027390008E00C002008B50A4602480349AD
:1008340002F002FC014808BD32390008E00C002037
:1008440008B50A460248034902F0F6FB014808BD10
:100854004E390008E00C002000207047084B09497D
:10086400D3F818325A1E3F3312F8010F01F8010B66
:100874009A42F9D1044B01221A700020704700BF3C
:10088400B00500206D0500206C0500200020704795
:100894007047FEE7FEE7FEE7FEE7704770477047E4
:1008A40008B502F0B5F8BDE8084002F06FB80000E2
:1008B400014800F003BA00BFD407002008B50320A4
:1008C40001F0E0FF002211466FF00B0001F0ECFF95
:1008D400002211466FF00A0001F0E6FF00221146E3
:1008E4006FF0090001F0E0FF002211466FF00400F0
:1008F40001F0DAFF002211466FF0030001F0D4FF8B
:10090400002211466FF0010001F0CEFF0022BDE885
:10091400084011464FF0FF3001F0C6BFF0B5044661
:100924008BB060B390F8BD34056803F0FF021BB9C7
:1009340080F8BC24FFF71CFE032384F8BD34EB6B62
:10094400254613F4807355F8100B08BF236100F09B
:10095400F9FD0FCD6E460FC60FCD0FC695E8030007
:1009640086E803002546271D97E80E0055F8100B6E
:1009740000F032FD064630B1022384F8BD3401256F
:1009840028460BB0F0BD0146206800F0E1FD314679
:10099400D4F804C024264FF0010E0846CAB2944588
:1009A40001F1010121D8002124260A46C8B2844558
:1009B40001F1010127D80FCD6E460FC60FCD0FC62A
:1009C40095E8030086E8030097E80E00206800F02D
:1009D40041FE05460028CFD1012384F83800206861
:1009E40084F8BD3401F0D5F9CAE706FB0243C3E934
:1009F400120083F83DE083F83C20A3F8442083F8F8
:100A040040005865CAE706FB0043C3E9A22283F805
:100A14007D2283F87C0283F88022C3F89422C5E700
:100A240010B50446006894F8BC34012B15D001239A
:100A340084F8BC34A36A012B06D1A369012B1EBF21
:100A4400836B43F48033836300F076FD206801F008
:100A540092F9002084F8BC0410BD0220FCE710B514
:100A640090F8BC24012A04460BD0012280F8BC244F
:100A740080F83810006801F06EF9002084F8BC0496
:100A840010BD0220FCE770B50546242401F00F00D8
:100A940011F0800F00FB04F414BF04F13C0104F5D1
:100AA4001F7105EB040615BF4919491901240024D7
:100AB40014BF86F83D4086F87D42CA604A780870C3
:100AC4000B7102B10881022B04BF00234B7195F80E
:100AD400BC34012B09D00123286885F8BC3400F00C
:100AE40082FE002085F8BC0470BD0220FCE701F002
:100AF4000F02242311F0800F02FB03F310B514BF7F
:100B040003F13C0103F51F71044618BF0919184489
:100B14000BBF09190123002380F83D3008BF80F87A
:100B24007D320A7094F8BC34012B09D0012320686B
:100B340084F8BC3400F096FE002084F8BC0410BD98
:100B44000220FCE738B501F00F0524246C4304F5BA
:100B54001F7104440144C4F89432002384F87D32A4
:100B640084F87C52C4F89C320369C4F88C22012BAB
:100B740008BFC4F890220068DAB21DB900F0C8FEBC
:100B8400002038BD00F092FFFAE738B501F00F05F8
:100B940024246C4304F13C010444014463650023B0
:100BA400E365012384F83D3084F83C500369E26432
:100BB400012B08BF22650068DAB21DB900F0A8FE57
:100BC400002038BD00F072FFFAE738B5436801F041
:100BD4000F059D4204462CD811F0800F4FF02403DA
:100BE4001ED06B4303F13C0103440122014483F80A
:100BF4003D2001238B700D7094F8BC249A421AD0C6
:100C0400206884F8BC3401F052F82DB9217C2068A6
:100C140004F2C44201F00CF9002084F8BC0438BD8D
:100C24004B4303F51F7103440022014483F87D22E2
:100C3400DFE70120F3E70220F1E738B5436801F06C
:100C44000F029A42044626D8242311F0800F02FB97
:100C540003F314BF03F13C0103F51F71184415BFDE
:100C640009190919012300234FF0000514BF80F866
:100C74003D3080F87D328D700A7094F8BC34012BBD
:100C84000BD00123206884F8BC3401F03BF884F8CD
:100C9400BC54284638BD0120FCE70220FAE701F0E5
:100CA4000F03242253430A064CBF03F13C0103F50E
:100CB4001F710144006800F0A3BE00002DE9F04F4D
:100CC400066889B00446304601F09FF80390002876
:100CD40040F05581206801F06AF8002800F04F8147
:100CE400D6F808382068C3F30D23C4F8FC3401F0A7
:100CF4005EF82368810742BF5A6902F002025A6112
:100D0400184601F054F8C20606F500652DD5226890
:100D1400936923F010039361D6F8208008F4F0134C
:100D2400B3F5802F08F00F0740F02C8147F6F073DD
:100D340018EA030F14D0242303FB0747C8F30A1946
:100D4400D7F88C124A46304600F090FFD7F88C3220
:100D54004B44C7F88C32D7F89C324B44C7F89C32CA
:100D64002268936943F010039361206801F01FF82F
:100D7400030300F11A81206801F019F847030CD528
:100D8400206801F020F82746049006F5106B4FF018
:100D9400000A049B002B40F0CD81206801F007F885
:100DA400002813DA6B6823F001036B6094F8F434C1
:100DB400012B40F06882002184F8F414204600F0EE
:100DC400E4FA2268536903F000435361206800F099
:100DD400EEFF01050AD5AB68DA0702D52046FFF716
:100DE40025FC2268536903F400635361206800F012
:100DF400DEFFC30433D56B68206823F001036B6006
:100E0400102100F0D5FB06F510634FF67F316268C0
:100E14000398824200F23B82EB6943F00113EB61D9
:100E2400236B002B00F05082D5F8843043F00B0381
:100E3400C5F884306B6C43F00B036B64D6F8003850
:100E4400217C206823F4FE63C6F8003804F2C4420F
:100E540000F0EEFF2268536903F480535361206865
:100E640000F0A5FF870416D5206800F0D2FF2068A3
:100E740000F0AEFCE060276801F076FA227B0146C0
:100E8400384600F0E9FA2046FFF7BFFB22685369B1
:100E940003F400535361206800F089FF000707D56D
:100EA4002046FFF7AEFB2268536903F00803536141
:100EB400206800F07CFF010600F11182206800F038
:100EC40076FFC2020CD5A04606F5126901276368B5
:100ED400BB4200F21D822268536903F480135361FC
:100EE400206800F064FF83022CD5234606F53260A7
:100EF400012162688A4220D993F8A4C20268BCF135
:100F0400010F40F01B82002A80F21882D4F8FC748E
:100F140002F4803207F00107BA4240F00F8283F8EE
:100F2400A3C2B26942F08002B2617269170600F18D
:100F340005826B6843F400736B602268536903F4A1
:100F440000135361206800F032FF410007D52046AA
:100F5400FFF790FB2268536903F0804353612068D4
:100F640000F025FF42070AD523685D686B0702D5A8
:100F74002046FFF783FB226853682B43536009B074
:100F8400BDE8F08FB3F5402F7FF4EAAE082204F2F7
:100F9400C441304600F06AFE242303FB0747C8F32C
:100FA4000A18D7F89C324344D8E6206800F003FFBF
:100FB40006F530680490A2460027049B002B3FF4FA
:100FC400DAAE049BD80776D55FFA87FB20685946CA
:100FD40000F001FF10F0010F81461CD02068216948
:100FE4000123C8F8083000F5306303EB47130129E7
:100FF400D0F840C09A6840F08880110707D5B049FE
:101004008C4508D9100406D54FF4004202E091063D
:101014005AD520229A6019F0080F21D00823C8F865
:1010240008302368A6491A6C03F5306303EB4713B1
:101034008A42986804D9010444BF4FF40040986080
:1010440020460592FFF7C6FA059A9D498A4207D9B8
:101054002169012904D1206804F2C44200F0E8FEA9
:1010640019F0100F1CBF1023C8F8083019F0020F34
:1010740014D073691B0642BF6B6843F480636B60D2
:101084009AF87F32012B06D100238AF87F32594621
:101094002046FFF7E7FA0223C8F8083019F0200FBA
:1010A4001CBF2023C8F8083019F4005F1CBF4FF49C
:1010B4000053C8F80830049B5B080137049308F117
:1010C40020080AF1240A78E77D498C4501D91204E5
:1010D4009AD41A69DAF89832C2F312029B1ACAF83F
:1010E4009C326FB9D4F894222AB904F2C442012183
:1010F40000F09EFE04E0D4F88C221A44C4F88C223A
:1011040059462046FFF76CFA85E76E498C4507D1AE
:1011140011043FF579AF9006F2D520229A60EFE7EB
:10112400002FEDD1D4F89432002BE9D104F2C4425B
:101134003946DDE7049BD80740F19C805FFA8AF3C7
:1011440020680793194600F04FFE10F0010F804607
:1011540020D06B6B01210AF00F0201FA02F223EA9C
:1011640002036B63CBF80810216901290DD1D7E97B
:1011740012231344FB64BAF1000F06D1636D23B943
:10118400206804F2C44200F053FE5FFA8AF120465C
:10119400FFF72FFA18F0080F1CBF0823CBF808300C
:1011A40018F0100F1CBF1023CBF8083018F0400FB4
:1011B4001CBF4023CBF8083018F0020F12D0514660
:1011C400304600F0F5F997F83F30012B07D10023A2
:1011D40087F83F305FFA8AF12046FFF747FA022387
:1011E400CBF8083018F0800F44D0FA6D7B6D9A422A
:1011F40040D8A3EB0208BB6C21680591984528BF31
:10120400984601F5106308F1030803EB4A134FEA0B
:1012140098080693069B99697B6D89B2414527D34B
:101224009A420BD3059B0AF00F00D3F8342801210E
:10123400814022EA0102C3F834281BE0A3EB02092F
:10124400BB6C079A0598994528BF9946237C00935F
:10125400F96C1FFA89F300F015FCFB6CFA6D09F1C7
:1012640003084B444A444FEA9808FB64FA65D1E703
:101274009A42D7D2049B5B080AF1010A04932437EB
:101284000BF1200B85E52046FFF7E8F999E5996015
:101294001A6822F400121A60C3F80812D3F8002264
:1012A40022F40012C3F80022D3F8002242F00062B4
:1012B400C3F80022039A013203922033A7E500BF4A
:1012C4000A30544F0A31544F6B6943F4005343F0CE
:1012D4002B036B612B6943F00B032B61AEE5B36900
:1012E40023F08003B361012704F27F284FF024091F
:1012F4006368BB427FF6E2AD09FB07F318F80330DD
:10130400012B03D1F9B22046FFF7C9FC0137EFE7FF
:1013140098F86430D9F80020012B09D1002A07DAA3
:1013240067F07F0188F86330C9B22046FFF7B7FC45
:10133400013708F1240809F12009C8E501312433F3
:101344002030D6E5006870B5436A120419B9134316
:101354008362002070BD846A4E1E03EB1443002494
:10136400B44205D33F3100EB810013434360F0E7FF
:1013740004F1400500EB850501346D6803EB15436A
:10138400EEE70368002059627047704782B000237B
:10139400104901930246019B01330193019B8B4247
:1013A40015D81369002BF6DA002301931369094950
:1013B40043F001031361019B01330193019B8B42B1
:1013C40005D8106910F00100F5D102B07047032070
:1013D400FBE700BF400D030084B038B505AD85E8D8
:1013E4000E000A9B012B044625D1836B23F4803322
:1013F4008363C36823F4840323F04003C360C36896
:1014040023F44013C360119B012B02BFC36843F450
:101414008013C360FFF7BAFF089B012B07D1A368B1
:1014240043F00603A360A36843F02003A360BDE870
:10143400384004B07047C36843F04003C360FFF70B
:10144400A5FF0E9B23B9A36B43F48033A363E3E7A7
:10145400A36B23F48033F9E7022A4AD1274B284AA5
:101464000B44934239D9274B274A0B44934236D92C
:10147400264AA1F57403A3F51053934231D9244AA3
:10148400A1F18373A3F5E74393422CD3214B224A62
:101494000B44934229D9214B214A0B44934226D32E
:1014A400204B214A0B44934223D3204AA1F1B77322
:1014B400A3F5585393421ED31D4B1E4A0B4493422B
:1014C4002CBF06230723C26822F47052C260C2688C
:1014D40042EA8323C360002070470F23F3E70E23FF
:1014E400F1E70D23EFE70C23EDE70B23EBE70A23EA
:1014F400E9E70923E7E70823E5E700BF405327FFAF
:10150400FF340C00401E1BFF3F420F007F4F1200B0
:1015140020D6130060B6E5FE5FE3160000D3CEFECE
:1015240040771B00C05BB3FEC091210020753800DA
:10153400E05459FEE09C4100836843F0010383605A
:1015440000207047836823F0010383600020704704
:1015540038B5C368012923F0C04305460C46C3606F
:1015640014D1C36843F00053C3600024012001F088
:1015740061FA6B69D90704F1010402D4322CF5D164
:101584003224A4F132035842584138BD71B9C368BA
:1015940043F08043C360012001F04CFA6B69DA0721
:1015A40004F10104EDD5322CF5D1E9E70120ECE793
:1015B40082B00246002310480193019B013301933A
:1015C400019B834215D81369002BF6DA890141F097
:1015D40020010023019311610749019B0133019309
:1015E400019B8B4205D8106910F02000F5D102B0A0
:1015F40070470320FBE700BF400D030082B00023C7
:101604000F4901930246019B01330193019B8B42D5
:1016140013D81369002BF6DA002301930849102329
:101624001361019B01330193019B8B4205D810691F
:1016340010F01000F5D102B070470320FBE700BFA3
:10164400400D0300D0F800381943C0F800180020FA
:101654007047000084B02DE9F843044609A880E8E7
:101664000E00139E00230F46194603F1400204EBBB
:10167400820201330F2B5160F7D104F50068002E6C
:1016840073D1D8F8043043F00203C8F80430A36BD4
:1016940043F40013A363A36B23F40023A363A36B9A
:1016A40023F48023A3630023C4F8003ED4F8003855
:1016B400C4F800380E9B012B61D10B9900295CD131
:1016C4002046FFF7BFFF10212046FFF771FF0546B4
:1016D4002046FFF793FF2843C0B200230038C8F820
:1016E400103018BF0120C8F8143004F51062C8F88F
:1016F4001C3019464FF090454FF0006C4FF67F3E7A
:10170400BB423ED1002204F5306311464FF09045B0
:101714004FF0006C4FF67F3EBA4244D1D8F81030F7
:1017240023F48073C8F810300023A3616FF0804362
:1017340063610C9B1BB9A36943F01003A361A26905
:10174400224B1343A3610F9B1BB1A36943F008030E
:10175400A361012E01BFA36943F0804343F0040356
:10176400A361BDE8F84304B07047A36B23F40013EE
:10177400A363A36B43F4002394E71946A0E7032172
:101784009EE7D2F80090B9F1000F0ADA3BB9C2F82B
:1017940000C011610133C2F808E02032B0E71560DF
:1017A400F7E71160F5E7D3F80090B9F1000F0ADA12
:1017B4003AB9C3F800C019610132C3F808E0203314
:1017C400AAE71D60F7E71960F5E700BF00383C8021
:1017D400D0F8083813F0060004D013F0020F14BF39
:1017E40002200F20704730B50C78012204F00F0559
:1017F400AA404D78012D00F5006300EB441019D187
:10180400DD692A43DA61D0F800391A0410D4CA68B1
:10181400D0F80059C2F30A030A792B4343EA8243FE
:1018240043EA845343F0805343F40043C0F800393F
:10183400002030BDDC6944EA0242DA61D0F8003BA2
:101844001B04F5D4CB68D0F8002BC3F30A0313436D
:101854000A7943EA824343F0805343F40043C0F8D7
:10186400003BE5E710B50A784978012900EB4213FB
:1018740000F5006002F00F0222D1D3F8001900290C
:101884000BDAD3F8001941F00061C3F80019D3F85A
:10189400001941F08041C3F80019C46B012101FA19
:1018A40002F224EA0204C463C16921EA0202C261A9
:1018B400D3F80019144A0A40C3F80029002010BDC7
:1018C400D3F8001B00290BDAD3F8001B41F00061A8
:1018D400C3F8001BD3F8001B41F08041C3F8001B80
:1018E400C46B4FF4803101FA02F224EA0204C463A7
:1018F400C16921EA0202C261D3F8001B034A0A400B
:10190400C3F8002BDAE700BF007833EC0078F3EF7C
:101914004B7891F800C0012BF0B58C69364E374FE7
:1019240000EB4C1543D105F51063B4B91C69344080
:101934001C611C6944F400241C611C693C40012A9C
:101944001C6120D14A6902B15A61D5F8003943F0CB
:101954000443C5F800390020F0BDD3F810E00EEAC6
:1019640007071F611F693E401E61CE68A6423CBF47
:101974008E6134461E6946F400261E611E69C4F356
:1019840012043443DBE7D5F8003943F00443C5F8C7
:1019940000398B69002BDED0D0F834280CF00F0C02
:1019A400012303FA0CF31343C0F83438D3E7D5F812
:1019B400100B3840C5F8100BD5F8100B304005F566
:1019C40030631861C86804B188611C69C86144F453
:1019D40000241C611C69C0F312002043012A186111
:1019E40002D10A6902B15A61D5F8003B43F00443BD
:1019F400C5F8003BAFE700BFFFFF07E00000F8FFBA
:101A040082B000234A7801930B78012A4FEA4313EA
:101A14001ED100F51060C118C258002A02DB002054
:101A240002B07047C25842F00062C250C25842F03D
:101A34008042C25042F21072019B01330193019B18
:101A4400934201D90120EBE70B68002BF4DBE6E7B6
:101A540000F53060C118C258002AE0DAC25842F0DA
:101A64000062C250C25842F08042C25042F2107228
:101A7400019B01330193019B9342E3D80B68002B34
:101A8400F6DBCCE710B59DF8084044B903330132C6
:101A94009B0800EB023001EB8303994201D1002043
:101AA40010BD51F8042B0260F7E700002DE9F34163
:101AB40016464A7891F800E08B6991F804C0684FA3
:101AC400012A00EB4E14674A7AD104F51065D5F863
:101AD400108043BB08EA07072F612F6947F40027EA
:101AE4002F612F693A402A61012E3FD14B6903B11E
:101AF4006B61BCF1010F0CD1D0F8083813F4807F6E
:101B0400D4F800390CBF43F0005343F08053C4F8B9
:101B14000039D4F8003943F00443C4F800390020F4
:101B240002B0BDE8F08108EA02022A612A693A405B
:101B34002A61CA68D5F81080D718013FB7FBF2F7BD
:101B4400494A02EAC74242EA08022A612F69C3F3FA
:101B540012023A43BCF1010F2A61C5D12A6922F06D
:101B6400C0422A612A6942F00052BCE7D4F8002935
:101B7400BCF1010F42F00442C4F800290CD0002B40
:101B8400CDD0D0F834280EF00F0E012303FA0EF353
:101B94001343C0F83438C2E7D0F8082812F4807F21
:101BA400D4F800290CBF42F0005242F08052C4F82D
:101BB4000029009609699BB27246FFF763FFAEE7FE
:101BC400D4F8105B2A40C4F8102BD4F8102BCD683D
:101BD4003A4004F5306ECEF810204BBBDEF81030DE
:101BE400C5F312051D43CEF81050DEF8103043F44F
:101BF4000023CEF81030012E03D10B690BB1CEF8BF
:101C04001430BCF1010F0CD1D0F8083813F4807FE4
:101C1400D4F8003B0CBF43F0005343F08053C4F8A6
:101C2400003BD4F8003B43F00443C4F8003B76E7A0
:101C34002B440D4ADEF81070013BB3FBF5F39BB265
:101C44005D4302EAC3433B43CD61CEF81030DEF876
:101C54001030C5F312051D43CEF81050CBE700BF7A
:101C6400FFFF07E00000F8FF0000F81F70B5002335
:101C7400940800F5805502F00302A34204D301EB5B
:101C8400840132B9084670BD2E6841F823600133DF
:101C9400F3E700F5805000230468D80024FA00F02C
:101CA4005854013398B28242F7D15018EBE74A787E
:101CB4000B78012A00EB431012D1D0F80029002A36
:101CC40006DB2BB1D0F8003923F08043C0F800398B
:101CD400D0F8003943F40013C0F8003900207047ED
:101CE400D0F8002B002A06DB2BB1D0F8003B23F000
:101CF4008043C0F8003BD0F8003B43F40013C0F825
:101D0400003BEBE70B784A7800EB43100B79012A90
:101D1400A3F10203DBB20FD1D0F80029012B22F486
:101D24000012C0F8002905D8D0F8003943F08053D8
:101D3400C0F8003900207047D0F8002B22F40012BC
:101D4400012BC0F8002B9EBFD0F8003B43F080531A
:101D5400C0F8003BEEE7D0F8003823F4FE63C0F887
:101D64000038D0F80038090101F4FE611943C0F8C5
:101D7400001800207047D0F8003E23F00303C0F899
:101D8400003ED0F8043823F00203C0F804380020E1
:101D94007047D0F8003E23F00303C0F8003ED0F8AB
:101DA400043843F00203C0F8043800207047426945
:101DB400806910407047D0F8183800F50060C06999
:101DC4001840000C7047D0F8183800F50060C0695E
:101DD400184080B2704700EB411100F50060D1F863
:101DE400082B406910407047D0F81028D0F83438D8
:101DF40000EB411001F00F01CB4000F51060DB0156
:101E04008068DBB2134318407047406900F001005A
:101E14007047D0F800396FF30A03C0F80039D0F8DE
:101E2400043843F48073C0F804380020704700007D
:101E340030B5056C104CA54200F5306303D9D0F8D9
:101E4400004B002C16DB00241C611C6944F40024A4
:101E54001C611C6944F018041C611C69012944F0CC
:101E6400C0441C6101BF5A61D0F8003B43F0802399
:101E7400C0F8003B002030BD0A30544F2DE9F34137
:101E8400044640B30368DE0710D423689D075BD47F
:101E94002368190700F19D8023685A0700F1BD806B
:101EA400A369002B40F0248100202CE08D4B9A681C
:101EB40002F00C02042A07D09A6802F00C02082AE5
:101EC4000BD15B68590208D5864B1B689A03DCD595
:101ED4006368002BD9D1012015E06368814DB3F507
:101EE400803F13D12B6843F480332B6000F09CFDBA
:101EF4007C4E054633689B03C7D400F095FD401B18
:101F04006428F7D9032002B0BDE8F081B3F5A02F0F
:101F140004D12B6843F480232B60E3E72A6822F47E
:101F240080322A602A6822F480222A60002BDDD1C4
:101F340000F07AFD06462B689F03A6D500F074FDD9
:101F4400801B6428F7D9DDE7664B9A6812F00C0F02
:101F540007D09A6802F00C02082A11D15B685D026E
:101F64000ED4604A1368990702D5E368012BB2D1F5
:101F74001368216923F0F80343EAC103136087E778
:101F8400E268594BB2B101221A6000F04DFD554D83
:101F940006462B689B0707D52B68226923F0F803B4
:101FA40043EAC2032B6073E700F03EFD801B022866
:101FB400EFD9A7E71A6000F037FD4A4E05463368AB
:101FC4009F077FF565AF00F02FFD401B0228F6D96F
:101FD40098E76269444B82B10122C3F8802E00F075
:101FE40023FD404E0546736F9B073FF555AF00F048
:101FF4001BFD401B0228F6D984E7C3F8802E00F0AD
:1020040013FD384E0546736F9F077FF545AF00F00B
:102014000BFD401B0228F6D974E7324B1A6C12F000
:10202400805228D101921A6C42F080521A641B6CBF
:1020340003F080530193019B01272C4D2B68D80595
:102044001BD5A368274D012B27D12B6F43F0010328
:102054002B6700F0E9FC234E054641F28838336FC4
:102064009A0739D5002F3FF41BAF1E4A136C23F097
:102074008053136414E70027DFE72B6843F480736D
:102084002B6000F0D1FC06462B68D905D9D400F0AA
:10209400CBFC801B0228F7D934E7052B04D12B6F26
:1020A40043F004032B67D0E72A6F22F001022A676A
:1020B4002A6F22F004022A67002BCAD100F0B4FC74
:1020C40041F2883806462B6F9B07CBD500F0ACFC59
:1020D400801B4045F7D915E700F0A6FC401B40459E
:1020E400BDD90FE7003802400000474200700040AD
:1020F400374DAA6802F00C02082A3ED0022B354B59
:102104004FF000021A662BD100F08EFC06462B68B5
:1021140099011FD4D4E907321343626A43EA821354
:10212400E26A43EA0263A26A5208013A43EA0243BA
:102134006B60284B264D01221A6600F075FC04469C
:102144002B689A013FF5B0AE00F06EFC001B02282C
:10215400F6D9D7E600F068FC801B0228D7D9D1E66F
:1021640000F062FC04462B689B017FF59DAE00F0F5
:102174005BFC001B0228F6D9C4E6012B3FF4ABAE8E
:102184006B68E26903F4800191427FF4A4AE216A92
:1021940003F03F028A427FF49EAE616A47F6C07242
:1021A4001A40B2EB811F7FF496AEA26A520803F480
:1021B4004031013AB1EB024F7FF48DAEE26A03F095
:1021C4007063B3EB026F14BF012000209BE600BFD5
:1021D4000038024000004742134908B58B6803F0F9
:1021E4000C03042B1CD0082B1CD14A684B6849688B
:1021F40013F4800314BF0D480D48C1F3881118BFB0
:10220400002302F03F02A1FB0001FDF7C9FF064BCA
:102214005B68C3F3014301335B00B0FBF3F008BD1B
:102224000248FCE70248FAE70038024040787D01A2
:102234000024F4002DE9F0410D46044610B90120B4
:10224400BDE8F081434B1A6802F007028A4228D3A2
:1022540021688F072DD4C80740D43E4B1A6802F07A
:102264000702AA4265D8226851076BD4130707D521
:10227400394A2169936823F4604343EAC1039360B4
:10228400FFF7AAFF344B354A9B68C3F30313D35CAF
:10229400D840334B1860334B186800F07BFB0020A8
:1022A400CEE7CAB21A701B6803F007038B42C6D18B
:1022B400CEE7294B11F0040F1EBF9A6842F4E05296
:1022C4009A600E0742BF9A6842F460429A609A6824
:1022D400A06822F0F00202439A60BCE762681E4BD9
:1022E400012A1CD11B6813F4003FA8D01A4EB3680E
:1022F40023F003031343B36000F096FB41F28838E4
:102304000746B368626803F00C03B3EB820FA4D0F2
:1023140000F08AFBC01B4045F3D9032090E7911ECF
:1023240001291B6802D813F0007FDEE713F0020FC7
:10233400DBE7EAB21A701B6803F00703AB427FF4D1
:102344007EAF90E70449E0688B6823F4E0530343CD
:102354008B608BE7003C0240003802406D39000876
:102364007800002074000020014B1868704700BFFB
:1023740078000020094910B50C6924F440740C61FC
:102384000C6944F440740C610C6944F001040C6160
:102394000260BFF36F8F436010BD00BF003C02407A
:1023A400074B1A6922F440721A611A6942F40072E6
:1023B4001A611A6942F001021A610160704700BF94
:1023C400003C0240074B1A6922F440721A611A69F0
:1023D40042F480721A611A6942F001021A610180A2
:1023E400704700BF003C0240204BDA68D00606D597
:1023F4001F49CA6942F01002CA611022DA60DA6821
:10240400910606D51A49CA6942F00802CA61202217
:10241400DA60164BDA68520606D51549CA6942F0E5
:102424000402CA614022DA60DA68100606D510494F
:10243400CA6942F00202CA618022DA600B4BDA6890
:10244400D10507D50A49CA6942F00102CA614FF4AD
:102454008072DA60DA68920706D50549CA6942F0E3
:102464002002CA610222DA60704700BF003C0240C9
:10247400E00E0020064B1A69002ABFBF054A5A60C5
:1024840002F188325A60BABF1869C00F0020704741
:10249400003C024023016745034A136943F00043AB
:1024A40013610020704700BF003C0240114B70B51F
:1024B40000220446DA6100F0B7FA0F4D0646EB68D5
:1024C400DA030CD4EB68DB0744BF0123EB60E86854
:1024D40010F4F97007D0FFF787FF012003E0611CB7
:1024E400EDD00CB9032070BD00F09EFA801BA04211
:1024F400E5D9F7E7E00E0020003C02402DE9F04169
:102504001F4E9846337E012B07460D46144635D0A0
:1025140001234CF250303376FFF7C8FFB0B9CFB97E
:10252400184B1A6922F440721A611A691A611A69FD
:10253400E4B242F001021A612C704CF25030FFF701
:10254400B5FF104A136923F00103136100233376A6
:10255400BDE8F081012F04D1A1B22846FFF732FF74
:10256400EBE7022F04D121462846FFF719FFE4E7E1
:10257400224643462846FFF7FDFEDEE70220E7E752
:10258400E00E0020003C0240074B1A6922F440721E
:102594001A611A6942F004021A611A6942EA0022B5
:1025A40042F480321A617047003C02400D4B1A69B4
:1025B40022F440721A611A69022994BF09024FF485
:1025C40040710A431A611A6922F0F8021A611A6901
:1025D40042EAC00040F0020018611A6942F48032F5
:1025E4001A617047003C0240144B1A6891050FD5DC
:1025F4001A6822F400721A601A6842F400621A60BF
:102604001A6822F400621A601A6842F400721A60AE
:102614000A4B1A6852050FD51A6822F480621A60B0
:102624001A6842F480521A601A6822F480521A60BE
:102634001A6842F480621A60704700BF003C02408E
:102644002DE9F843DFF8948098F81830012B0546FB
:102654000F463FD001234CF2503088F81830FFF772
:1026640025FF0446A0B94FF0FF333B602B68012BD4
:1026740014D1287CFFF788FF4CF25030FFF716FF87
:10268400154A136923F0040304461361FFF7ACFFF2
:10269400002388F818302046BDE8F883AE68DFF8D8
:1026A4003890D5E902231344B342EFD9297C30464C
:1026B400FFF77CFF4CF25030FFF7F8FED9F81030EA
:1026C40023F0FA03C9F8103010B13E600446DDE788
:1026D4000136E6E70224DEE7003C0240E00E00207B
:1026E4002DE9F74FDFF880915D4A00230D6801243E
:1026F4009C4004EA0506AC4340F0A3804D680327E0
:1027040005F003044FEA430807FA08FC671E012F8B
:102714006FEA0C0C34D8876807EA0C0ECF6807FA06
:1027240008F747EA0E078760476827EA060EC5F3ED
:1027340000179F4047EA0E074760C76807EA0C0E78
:102744008F6807FA08F747EA0E07022CC76019D109
:102754004FEAD30A00EB8A0A03F0070BDAF8207079
:102764004FEA8B0B4FF00F0E0EFA0BFE27EA0E0EFC
:102774000F6907FA0BF747EA0E07CAF8207001E061
:10278400032CDAD1076804FA08F407EA0C073C437F
:1027940015F4403F046054D000240194D9F8444017
:1027A40044F48044C9F84440D9F8444023F0030772
:1027B40007F1804704F4804407F59C37019403F043
:1027C400030C019CD7F808E04FEA8C0C0F2404FAA0
:1027D4000CF42EEA040E234CA04239D004F5806494
:1027E400A04237D004F58064A04235D004F580645B
:1027F400A04233D004F58064A04214BF072404240B
:1028040004FA0CF444EA0E04BC609468F74315F42B
:10281400801F0CBF3C4034439460D46815F4001FFF
:102824000CBF3C403443D460546815F4003F0CBFE3
:102834003C40344354601468ED0354BF3C4034437B
:1028440014600133102B7FF451AF03B0BDE8F08F57
:102854000024D5E70124D3E70224D1E70324CFE7FA
:10286400003C01400000024000380240006908407A
:10287400003818BF012070470AB18161704709040C
:10288400FBE700000749CA6822F4E062030212046D
:1028940003F4E063120C134343F0BF6343F40033C7
:1028A400CB60704700ED00E0164B30B5DC68C4F334
:1028B4000224C4F10703251D042B28BF0423062D7D
:1028C4004FF0FF358CBF033C002405FA03F321EAE3
:1028D4000303A54022EA0502A340002843EA0203B9
:1028E400ACBF00F16040084A4FEA0313B8BF00F0E0
:1028F4000F00DBB2AABF00F56140135480F8003327
:1029040030BD00BF00ED00E014ED00E0002807DB5F
:102914004109044A00F01F000123834042F821309A
:10292400704700BF00E100E0BFF34F8F0549064B3D
:10293400CA6802F4E0621343CB60BFF34F8F00BF59
:10294400FDE700BF00ED00E00400FA050138B0F136
:10295400807F0BD24FF0E023054A5861F02182F8C2
:1029640023100020072298611A61704701207047E4
:1029740000ED00E04FF0E02304281A690CBF42F098
:10298400040222F004021A617047704708B5FFF789
:10299400FCFF08BD38B50E4B1A784FF47A73B3FBBD
:1029A400F2F30C4A05461068B0FBF3F0FFF7CEFFD4
:1029B400044658B90F2D09D8024629464FF0FF3076
:1029C400FFF772FF044B20461D6038BD0120FCE771
:1029D40070000020780000207400002008B50B4B24
:1029E4001A6842F400721A601A6842F480621A602B
:1029F4001A6842F480721A600320FFF743FF002034
:102A0400FFF7C8FFFDF75AFF002008BD003C024055
:102A1400034A044B11681B780B441360704700BFD2
:102A2400000F002070000020014B1868704700BFA1
:102A3400000F002038B50446FFF7F6FF631C1CBFE7
:102A4400054B1B78054618BFE418FFF7EDFF431B41
:102A5400A342FAD338BD00BF700000200F49D1F85B
:102A6400883043F47003C1F888300D4B1A68002095
:102A740042F001021A6098601A6822F0847222F40B
:102A840080321A60074A5A601A6822F480221A6057
:102A9400D8604FF000638B60704700BF00ED00E02A
:102AA400003802401030002408B580B1D0F8143248
:102AB40013B10023C0F8143209B1C0F81012012375
:102AC40080F8FC310270FDF7DDFD002008BD022016
:102AD400FCE719B1C0F814120020704702207047B7
:102AE40008B5FDF703FE002008BD08B5D0F8143280
:102AF40033B11B689847003818BF0120400008BD57
:102B04000220FCE708B5D0F814325B68984700202F
:102B140008BD38B5044600F50275284600F076FA7B
:102B2400012394F80812C4F8F431B4F80E32C4F84E
:102B3400F83101F01F03012B08D0022B0BD07BB915
:102B44002946204600F0EAF8002038BD29462046F0
:102B540000F0DEF9F8E72946204600F0F1F9F3E742
:102B640001F080012046FDF7E5FDEDE770B5044670
:102B7400164601BBD0F8F431032B0DD1D0E94353F1
:102B84009D420BD9ED1AAB4228BF2B46C0F80C511D
:102B94009AB2314600F08EFA002070BDD0F814329B
:102BA4001B6923B190F8FC21032A00D198472046E1
:102BB40000F088FAF0E7D0F814329B69002BEBD0D0
:102BC40090F8FC21032AE7D19847E5E7F8B50446D5
:102BD40013460F4600293DD1D0F8F421022A0FD123
:102BE400D0E90756B54214D9AD1B1946C561AAB23E
:102BF40000F04BFA3B461A4619462046FDF7D9FD2C
:102C040094F80032012B02D1002384F80032002012
:102C1400F8BD8369B3FBF6F506FB153565B99E422D
:102C24000AD8D0F8F821934206D22A4600F02DFAA9
:102C3400C4F8F8512B46DEE7D4F81432DB682BB124
:102C440094F8FC21032A01D120469847204600F03D
:102C540044FAD5E7D0F814325B69002BD7D090F84A
:102C6400FC21032AD3D19847D1E738B50022044682
:102C7400114640254023FDF744FD2B46C4F810516E
:102C8400002280212046FDF73CFD012384F8FC311D
:102C9400D4F8183225622BB1D4F8143221795B6848
:102CA40020469847002038BD01740020704790F8F2
:102CB400FC3180F8FD31042380F8FC31002070479A
:102CC40090F8FD3180F8FC310020704708B590F889
:102CD400FC21032A04D1D0F81432DB6903B19847EC
:102CE400002008BD00207047002070470020704776
:102CF40008B5012280F8FC21D0F814220179526829
:102D04009047002008BD10B580210446FDF712FD50
:102D140020460021BDE81040FDF70CBD37B54B78C7
:102D240004460D46092B76D8DFE813F0C900E50008
:102D34007500D90075006D000A007500B9008D009A
:102D44004B881A0A013A062A65D8DFE802F0041C07
:102D5400296464495200D0F810321B68207C0DF1BC
:102D640006019847BDF80620002A67D0EB88002B9F
:102D740064D09A4228BF1A46ADF806200146204680
:102D840000F076F95AE0027CD0F8143232B99B6A2A
:102D94000DF10600984702234370E3E7DB6AF7E787
:102DA400DBB2052B37D8DFE803F003070B0F13174B
:102DB400D0F810325B68D1E7D0F810329B68CDE7C9
:102DC400D0F81032DB68C9E7D0F810321B69C5E7C8
:102DD400D0F810325B69C1E7D0F810329B69BDE7C7
:102DE400037CC3B9D0F814320DF106005B6B98472D
:102DF400B8E7037C7BB9D0F814320DF106001B6BE5
:102E040098470723C8E78B882BB9CB881BB990F860
:102E1400FC31032B03D12046FFF775FF0EE04D88EC
:102E240005F07F0580F8FE512946FDF7ACFC2046ED
:102E340000F048F92DB1022384F8FC31002003B0DE
:102E440030BD0123F8E78978304D01292970E2D893
:102E540090F8FC31022B0CD0032BDCD1B1B9022346
:102E640080F8FC314160FFF74DFE204600F02AF95E
:102E7400E4E70029F9D001210323416080F8FC3103
:102E84002046FFF732FE0228EFD1C4E7416801294A
:102E9400EBD0C9B2FFF736FE29786160F0E7CA8843
:102EA400012AB8D190F8FC31022B03D0032BB2D104
:102EB400011D64E70146002341F8083F5FE790F8ED
:102EC400FC31023B012BA6D8D0F804320146002B7A
:102ED4000CBF0123032341F80C3F02224FE74B8828
:102EE400012BABD1C4F80432D4F8143229469B68C0
:102EF40020469847B9E790F8FC31023B012B8AD869
:102F04004B88012B9AD10023ECE700BF040F00206B
:102F140038B590F8FC31032B04460D460DD10B79DE
:102F2400012B0AD8D0F814329B689847EB8813B960
:102F3400204600F0C7F8002038BDFFF7E4FEFAE7AA
:102F440070B50A788E880B7902F06002202A044654
:102F54000D4605D1D0F814329B689847002070BD07
:102F64004A78012A3DD0032A20D0002AF6D190F8CD
:102F7400FC21022A44D0032A1ED1320646BF03F0A4
:102F84007F0500EB051500EB031519464CBF1435FE
:102F940005F58275FDF7E4FB003818BF01202860B1
:102FA40002222946204600F063F8D7E790F8FC2176
:102FB400022A25D0032A03D02046FFF7A4FECDE73A
:102FC4004A8822B95A0602D01946FDF7B3FBD4F851
:102FD400143229469B6820469847204600F072F830
:102FE400BCE790F8FC21022A0AD0032AE4D14A88DB
:102FF400002AB3D15E06F0D01946FDF7A6FBE6E73A
:103004005906ABD01946FDF795FBA7E70B7803707B
:103014004B7843704B8843808B888380CB88C380F4
:10302400704710B580210446FDF784FB204600213B
:10303400BDE81040FDF77EBB70B50D46164604464C
:1030440070B1FDF7A5F8C3B201335B0033802B7078
:1030540003236B70013C0223002014F8011F01B903
:1030640070BD5A1CD2B2E9540233A854DBB2F4E75F
:1030740010B513460222C0E90633C0F8F4210A460B
:103084000021FDF78BFB002010BD08B513460A464E
:103094000021FDF783FB002008BD10B51346032271
:1030A400C0E94233C0F8F4210A460021FDF781FB50
:1030B400002010BD08B513460A460021FDF779FB30
:1030C400002008BD08B50423C0F8F43100231A46D3
:1030D4001946FDF763FB002008BD08B50523C0F8B9
:1030E400F43100231A461946FDF763FB002008BD9E
:1030F400292303800048704794000020D0F8183238
:10310400002083F85000704710B5D0F81842E36CE3
:10311400012B07D1D0F81C326178DB6820789847FE
:103124000023E364002010BD0A2303800048704795
:103134007C00002038B5D0E9865304466978DB6802
:103144002878984740232A4601212046FDF731FB81
:10315400002038BD38B50B4604461A78D0F818124A
:1031640012F060022AD0202A0CD15A78023A092A95
:103174001ED8DFE802F013091D1D1D1D1D160F05C5
:103184009B780B64002018E0012240312046FFF7B1
:103194006FFFF7E75B881B0A4B64F3E701224431B6
:1031A400F4E70122CA6420469A79FFF776FFE9E73B
:1031B40020461946FFF735FF022038BD5D780A2DF9
:1031C40019D00B2D1AD0062DDCD15988090A2229D1
:1031D40007D1DA88D0F81C32142A196828BF1422BF
:1031E400D4E7212905D1DA880649092A28BF09220A
:1031F400CCE71146CAE701224831C8E79B788B64C3
:10320400C0E700BF8800002010B581210446FDF707
:1032140086FA01212046FDF782FAD4F8183253B118
:10322400D4F81C329B689847D4F8180200F078F858
:103234000023C4F81832002010BD70B508230446DA
:1032440003228121FDF75DFA402303220121204658
:10325400FDF757FA542000F05BF80546C4F818024D
:1032640070B1D4F81C32002680F850605B6898472F
:1032740040232A4601212046FDF79BFA304670BDC3
:103284000120FCE710B5134690F8FC21032A0BD16A
:10329400D0F8182292F8504034B9012482F85040F2
:1032A4000A468121FDF77AFA002010BD19B1C0F851
:1032B4001C1200207047022070470000DFF834D051
:1032C400FFF7CCFB0C480D490D4A002302E0D4580B
:1032D400C4500433C4188C42F9D30A4A0A4C00235C
:1032E40001E013600432A242FBD300F0EFF8FDF7D3
:1032F40039F8704700000120000000204801002038
:10330400903900084801002054100020FEE7000016
:10331400024B0146186800F02DB800BFF8000020E9
:10332400024B0146186800F0F7B800BFF80000200F
:1033340070B50F4E0C463168054611B900F0B6F869
:1033440030602146284600F0B1F8431C03D14FF009
:10335400FF34204670BDC41C24F00304A042F8D0FE
:10336400211A284600F0A2F80130F2D1EFE700BF9D
:10337400080F00202DE9F843CD1C25F0030508357E
:103384000C2D38BF0C25002D064601DBA94204D9BB
:103394000C2333600020BDE8F883DFF8D48000F00C
:1033A40069F8D8F800301C4644BB29463046FFF77C
:1033B400BFFF431C044658D1D8F800402746002FCD
:1033C40043D1002C4BD023683946304604EB030923
:1033D40000F06CF8814542D121686D1A29463046C7
:1033E400FFF7A6FF01303AD023682B442360D8F8B6
:1033F40000305A6862BBC8F800700FE02268521BA4
:1034040020D40B2A17D96119A342256018BF59602B
:10341400636808BFC8F8001062514B60304600F082
:103424002FF804F10B00231D20F00700C21A1CBF63
:103434001B1AA350AFE76268A3420CBFC8F8002070
:103444005A60EBE723466468AEE73C467F68B6E71C
:103454001A465B68A342FBD100235360DEE70C23CA
:103464003360304600F00CF894E70560D6E700BFFF
:103474000C0F0020014800F04DB800BF4C10002094
:10348400014800F048B800BF4C10002010B50139C5
:103494000244904201D1002005E0037811F8014F65
:1034A400A34201D0181B10BD0130F2E738B5064D18
:1034B4000023044608462B6000F078F8431C02D130
:1034C4002B6803B1236038BD4810002070B50D4B44
:1034D4000D4D5B1B9C100026A64209D100F0F0F9AB
:1034E4000A4D0B4B5B1B9C100026A64205D170BDF8
:1034F40055F8043B98470136EEE755F8043B9847E6
:103504000136F2E78839000888390008883900084C
:103514008C3900087047704738B50546002941D0FA
:1035240051F8043C0C1F002BB8BFE418FFF7A2FFAE
:103534001D4A136833B9636014602846BDE83840F7
:10354400FFF79EBFA34208D9206821188B4201BF10
:1035540019685B6809182160EDE71A465B680BB1CE
:10356400A342FAD911685018A0420BD12068014433
:10357400501883421160E0D118685B6853600844B6
:103584001060DAE702D90C232B60D6E720682118F3
:103594008B4204BF19685B68636004BF091821602B
:1035A4005460CAE738BD00BF0C0F0020044A054927
:1035B4001368002B08BF0B46184410601846704768
:1035C40050100020581000202DE9F047089D0F46A8
:1035D40004468C46002B48D18A42164661D9B2FA79
:1035E40082F34BB1C3F1200201FA03FC20FA02F288
:1035F4009E4042EA0C0C9C404FEA164EB7B2BCFB0C
:10360400FEF1220C0EFB11CC42EA0C4201FB07F046
:10361400904209D9B21801F1FF3C80F0EE8090424B
:1036240040F2EB8002393244121AA4B2B2FBFEF02B
:103634000EFB102244EA024400FB07F7A74209D913
:10364400341900F1FF3280F0DA80A74240F2D780CB
:103654003444023840EA0140E41B00211DB1DC403F
:103664000023C5E90043BDE8F0878B4206D90DB1BC
:10367400C5E9000100210846BDE8F087B3FA83F1EB
:10368400002948D1BB4202D3824200F20781841A46
:1036940067EB030201209446002DE4D0C5E9004CF9
:1036A400E1E7002A00F09280B2FA82F3002B40F0A6
:1036B400A8808A1A4FEA164E1FFA86FC0121200CB4
:1036C400B2FBFEF70EFB172240EA02420CFB07F0A6
:1036D400904207D9B21807F1FF3802D2904200F2A3
:1036E400E2804746121AA4B2B2FBFEF00EFB10228F
:1036F40044EA02440CFB00FCA44507D9341900F148
:10370400FF3202D2A44500F2CB801046A4EB0C0495
:1037140040EA0740A2E7C1F120068B4022FA06FCEA
:103724004CEA030C07FA01F420FA06F3F7404FEAD7
:103734001C49234300FA01F81FFA8CFEB7FBF9F089
:103744001C0C09FB107744EA074400FB0EF7A74260
:1037540002FA01F20AD91CEB040400F1FF3A80F0EA
:103764009B80A74240F2988002386444E41B9FB2D5
:10377400B4FBF9F309FB134447EA044403FB0EFECC
:10378400A64509D91CEB040403F1FF3780F08280BD
:10379400A6457FD9023B644443EA0040A4EB0E04EF
:1037A400A0FB02E7BC427346B94663D360D05DB167
:1037B400B8EB030264EB090404FA06F622FA01F3F7
:1037C4001E43CC40C5E9006400214CE76208480868
:1037D40042EAC1710B0C43EA00438AB242EA034253
:1037E400B3FBF6F1E407B4463746B6461F23B0FBF5
:1037F400F6F0D21B41EA004161E7614614E7104646
:1038040028E7C3F1200120FA01F29E4027FA01F1D2
:103814009F403A434FEA164E1FFA86FCB1FBFEF76F
:103824000EFB1710110C41EA004107FB0CF8884508
:1038340004FA03F43AD9711807F1FF3001D288452C
:103844001FD8A1EB0801B1FBFEF808FB0CF70EFB37
:10385400181192B242EA0142BA422FD2B21808F1C8
:10386400FF31C6D2BA42C4D2A8F102013244C0E741
:10387400F0459CD2BEEB020367EB0C070138B94656
:1038840095E7A6EB08084144B81EB1FBFEF808FB17
:103894000CF7DCE73B467FE7504667E70846FBE664
:1038A4003444023832E7023F32441BE7A1EB0801FB
:1038B4003846B1FBFEF808FB0CF7C8E7414698E729
:1038C400F8B500BFF8BC08BC9E467047F8B500BF09
:0838D400F8BC08BC9E467047D9
:1038DC005372632F757362645F636F6E662E630041
:1038EC005365726173696469732C204A69796F6ED0
:1038FC006720596F756E2C20417274687572205058
:10390C0072656368740053544D3332204849442027
:10391C00626F6F746C6F6164657200313233343571
:10392C0036373839300053544D333220484944200F
:10393C00626F6F746C6F6164657220436F6E666941
:10394C00670053544D33322048494420626F6F74E2
:10395C006C6F6164657220496E7465726661636533
:10396C00000000000000000000010203040607082C
:04397C00090000003E
:0839800014C8FF7F01000000E4
:04398800FD01000835
:04398C00D901000855
:1039900010000000010042544C44434D4402425484
:1039A0004C44434D4400000004030904120100028A
:1039B000000000400912BABE00030102030100002A
:1039C000CD070008D9070008E5070008FD07000833
:1039D000150800082D080008450800085C000020B4
:1039E0005D08000891080008610800080600FF094A
:1039F00000A101750895409103750895088103C0E1
:103A000001000000100000000024F4000A0600027B
:103A100000000040010000000921110100012214F2
:103A20000000000009022900010100C03209040061
:103A30000002030000000921110100012214000707
:103A40000581030800200705010140002000000057
:103A50003F3200080D320008593100080000000014
:103A60000D31000801310008393100080000000064
:103A70000000000000000000F5300008F5300008EC
:103A8000F53000082D310008FC0000200000000087
:103A9000100F0020780F0020E00F00200000000031
:103AA0000000000000000000000000000000000016
:103AB0000000000000000000000000000000000006
:103AC00000000000000000000000000000000000F6
:083AD0000000000000000000EE
:04000005080032C1FC
:00000001FF
